:020000040800F2
:10000000F81E0020752B0008A9030008AB030008A8
:10001000AF030008B3030008B703000800000000A6
:10002000000000000000000000000000BB0300080A
:10003000BD03000800000000BF030008C103000862
:100040008F2B00088F2B00088F2B00088F2B0008A8
:100050008F2B00088F2B00088F2B00088F2B000898
:100060008F2B00088F2B00088F2B00088F2B000888
:100070008F2B00088F2B00088F2B00088F2B000878
:100080008F2B00088F2B00088F2B00088F2B000868
:100090008F2B00088F2B00088F2B00088F2B000858
:1000A0008F2B00088F2B00088F2B00088F2B000848
:1000B0008F2B00088F2B00088F2B00088F2B000838
:1000C0008F2B00088F2B00088F2B00088F2B000828
:1000D0008F2B00088F2B00088F2B00088F2B000818
:1000E0008F2B00088F2B00088F2B00088F2B000808
:1000F0008F2B00088F2B00088F2B00088F2B0008F8
:100100008F2B00088F2B00088F2B00088F2B0008E7
:100110008F2B00088F2B00088F2B00088F2B0008D7
:100120008F2B00088F2B00088F2B00088F2B0008C7
:1001300000F002F800F067F80AA090E8000C824492
:100140008344AAF10107DA4501D100F05CF8AFF26F
:10015000090EBAE80F0013F0010F18BFFB1A43F0A5
:1001600001031847D0480000F04800000A444FF04F
:10017000000C10F8013B13F0070408BF10F8014B06
:100180001D1108BF10F8015B641E05D010F8016B4B
:10019000641E01F8016BF9D113F0080F1EBF10F8AF
:1001A000014BAD1C0C1B09D16D1E58BF01F801CBD2
:1001B000FAD505E014F8016B01F8016B6D1EF9D555
:1001C0009142D6D37047000000230024002500266A
:1001D000103A28BF78C1FBD8520728BF30C148BFAA
:1001E0000B607047662904F0D883002070471FB564
:1001F00002F0D6FF04000020002103F01BFDE060A8
:100200001FBD10B510BD03F0CBF81146FFF7EFFF8F
:1002100000F008F803F0E9F803B4FFF7F2FF03BCBD
:1002200003F02AF908B500F046F9002000F01BFBA6
:10023000022001F0ECFB27A000234FF6E07216210C
:100240000090202000F075FD26A000234FF6E072FC
:100250004A2100900E2000F0DFFC29A000234FF679
:10026000E072652100900E2000F0D6FC2BA0002348
:100270004FF6E072802100900E2000F0CDFC2EA001
:1002800000234FF6E0729B2100900E2000F0C4FC8A
:1002900030A000234FF6E072B62100900E2000F04F
:1002A000BBFC33A000234FF6E072D12100900E205A
:1002B00000F0B2FC35A000234FF6E072EC21009074
:1002C0000E2000F0A9FC04E000F0EAFF142000F08A
:1002D000CEFFF9E7BCF2D2D7CAFDD7D6C6B5C2CA9F
:1002E000BCC60000B1EAD7BCBCC6CAFD3A2020207B
:1002F000202020202020202020202020200000005E
:10030000B4FDB2E2BCC6CAFD3A2020202020202045
:10031000202020202020202020000000C6B5202002
:100320002020C2CA3A202020202020202020202067
:100330002020202020487A00D6DC20202020C6DA89
:100340003A20202020202020202020202020202093
:1003500020757300B8DFB5E7C6BD20203A20202005
:100360002020202020202020202020202075730005
:10037000B5CDB5E7C6BD20203A2020202020202082
:10038000202020202020202020757300D5BCBFD540
:10039000B1C820203A20202020202020202020200A
:1003A0002020202020250000704700BFFEE700BF6E
:1003B000FEE700BFFEE700BFFEE7704770477047EB
:1003C0007047000008B50121602001F0CFFD4CF618
:1003D000B370ADF8000003208DF8020018208DF8EE
:1003E00003006946FC4801F089FE4FF68070ADF8C5
:1003F000000003208DF8020018208DF803006946E4
:10040000F64801F07BFE4FF44050ADF800000320A9
:100410008DF8020010208DF803006946EE4801F0C7
:100420006DFE4FF40051EC4801F013FF08BD00B51C
:1004300097B00121080201F08CFD0121084601F06E
:1004400095FD0220019000200290052003900020DD
:100450000490059006904FF080500790002008907F
:10046000099008200A9010200B9000200C900E900C
:100470000F9010904FF48050119000201290139024
:10048000149001A81590169008A801F0D2FF012140
:10049000002002F02FF917B000BD22204FF0C0411C
:1004A000088070474FF0C0421080CD4A11807047DD
:1004B000CB490880704710B5FFF784FFFFF7B7FFFF
:1004C0004FF48051C44801F0C4FE0A2000F0ABFE96
:1004D0004FF48051C04801F0BEFE0A2000F0A3FE98
:1004E0004FF48051BC4801F0B4FE0A2000F09BFE9E
:1004F0004FF6FF70FFF7DCFF01210020FFF7D2FF6E
:100500004FF480710120FFF7CDFF41F2300103204D
:10051000FFF7C8FF00210420FFF7C4FF40F20721C6
:100520000820FFF7BFFF00210920FFF7BBFF0021D4
:100530000A20FFF7B7FF00210C20FFF7B3FF0021CF
:100540000D20FFF7AFFF00210F20FFF7ABFF40F2B8
:1005500001110720FFF7A6FF41F2B0211020FFF79D
:10056000A1FF07211120FFF79DFF01211720FFF7B1
:1005700099FF40F2BB111220FFF794FF4FF4E051B6
:100580001320FFF78FFF322000F04DFE19212920A4
:10059000FFF788FF322000F046FE4FF481713020D3
:1005A000FFF780FF322000F03EFE40F6214131206F
:1005B000FFF778FF40F622313220FFF773FF42F257
:1005C00010613320FFF76EFF41F60B613420FFF717
:1005D00069FF40F604213520FFF764FF41F2017105
:1005E0003620FFF75FFF40F217613720FFF75AFF11
:1005F00040F205313820FFF755FF40F6052139203C
:10060000FFF750FF40F604413A20FFF74BFF4FF44D
:1006100040613B20FFF746FF0C213C20FFF742FFE3
:1006200040F20C513D20FFF73DFF4FF401713E2099
:10063000FFF738FF40F204413F20FFF733FF00216E
:100640005020FFF72FFFEF215120FFF72BFF002154
:100650005220FFF727FF40F23F115320FFF722FF00
:100660004FF41C516020FFF71DFF01216120FFF7AF
:1006700019FF00216A20FFF715FF00218020FFF7F6
:1006800011FF00218120FFF70DFF00218220FFF7DD
:1006900009FF00218320FFF705FF00218420FFF7D9
:1006A00001FF00218520FFF7FDFE10219020FFF7BC
:1006B000F9FE00219220FFF7F5FE40F2031193208E
:1006C000FFF7F0FE4FF404719520FFF7EBFE0021D9
:1006D0009720FFF7E7FE00219820FFF7E3FE45F2A1
:1006E0000841F020FFF7DEFE0521F320FFF7DAFED8
:1006F0001F21F420FFF7D6FE0021F020FFF7D2FEE5
:1007000040F273110720FFF7CDFE4FF4005132483D
:1007100001F0A1FDFFF7C1FE10BD3EB500242E483B
:100720000C3000684CF2037108432B490C3108600F
:100730002A480C3000684FF68071084327490C3175
:100740000860C914244801F084FD8021224801F08A
:1007500082FD1021204801F07EFD10211E4801F08D
:1007600078FD10211C4801F076FD10211A4801F097
:1007700070FD194801F05CFDADF80800174801F064
:1007800057FDADF80A00BDF8080000F4E060400134
:10079000ADF80000BDF808008007000FADF80200BA
:1007A000BDF80800800BADF80400BDF80010BDF8DE
:1007B0000A004FF68072104001EBE000BDF8021015
:1007C0000844BDF80410084484B28021024801F0B6
:1007D00040FD20463EBD00000014014000180140CD
:1007E0000000026010B503460C4619462020FFF7B2
:1007F00059FE21462120FFF755FE10BD704730B548
:10080000014601F01F04C1F34513CA0AE50205EBD6
:1008100043151544A8B230BD70B504460D462946AF
:100820002046FFF7DFFFFFF738FEFFF776FF0646AB
:10083000FFF7E5FF70BD10B503460C4600215020C0
:10084000FFF730FE581E81B25120FFF72BFE00212A
:100850005220FFF727FE601E81B25320FFF722FED1
:10086000FFF71BFE10BD70B50546002400210846A9
:10087000FFF7B8FF4FF4A071F020FFF7DCFF4FF453
:100880000061F74801F0E5FC00BF03E02846FFF7F0
:100890000FFE641CB4F5963FF8D38021F04801F0B8
:1008A000D8FC70BD2DE9F04704460F4615461E469C
:1008B000DDF820A039462046FFF794FF214650205E
:1008C000FFF7F0FD29465120FFF7ECFD3946522095
:1008D000FFF7E8FD31465320FFF7E4FDFFF7DDFDAC
:1008E0004FF40061DE4801F0B4FCA0460EE0B946CA
:1008F00006E05046FFF7DCFD09F101001FFA80F920
:10090000B145F6DD08F101001FFA80F8A845EEDDDB
:100910008021D34801F09DFCBDE8F08710B5024668
:10092000002008E0A1F1200300EB0313CD4CE35CB1
:100930001354431CD8B21028F4DB10BD30B5024666
:100940000B46002121E001EB0114C74D15F81440BE
:100950001D78AC4217D101EB0114C34D05EB4404E3
:1009600064785D78AC420ED1002009E001EB0114FF
:10097000BD4D05EB4404A41C245C1454441CE0B29B
:100980002028F3DB30BD4C1CE1B26429DBDB002006
:1009900003E000241454441CE0B22028F9DB00BF1B
:1009A000F0E730B502460B46002127E001EB810459
:1009B00004EB4114AD4D15F814401D78AC421BD129
:1009C00001EB810404EB4114A84D05EB4404647869
:1009D0005D78AC4210D100200BE001EB810404EB08
:1009E0004114A24D05EB4404A41C245C1454441C83
:1009F000E0B24828F1DB30BD4C1CE1B26429D5DB04
:100A0000002003E000241454441CE0B24828F9DB21
:100A100000BFF0E72DE9F04304460D4616461F4699
:100A2000301B00F0FF08781B1FFA80F9294620468A
:100A3000FFF7D8FE21465020FFF734FD04EB0800F5
:100A4000401E81B25120FFF72DFD29465220FFF7AD
:100A500029FD05EB0900401E81B25320FFF722FD5E
:100A6000BDE8F0832DE9FF5F05460E461746984620
:100A7000DDF838B006F1100083B205F10800C2B20B
:100A800031462846FFF7C6FFFFF707FD594668467F
:100A9000FFF744FFEA464FF0000918E000240EE09B
:100AA0009AF8000080212141084203D14046FFF717
:100AB000FFFC02E03846FFF7FBFC601CC4B2082CC8
:100AC000EEDB0AF1010A09F1010000F0FF09B9F1BA
:100AD000100FE3DB8021624801F0BBFBBDE8FF9F04
:100AE0002DE9F84304460D4690469946089E4FF47A
:100AF00000615B4801F0ADFB00BF16F8017B4B467F
:100B00004246294620460097FFF7ACFFE82C03DA5F
:100B100004F10800C4B209E0B5F5987F04DA0024B6
:100B200005F1100085B201E000240025307800288E
:100B3000E3D180214A4801F08CFBBDE8F8832DE920
:100B4000F04F89B005460E4617469846DDF848B086
:100B500006F1100083B205F11000C2B231462846FA
:100B6000FFF758FFFFF799FC594601A8FFF7E6FE8B
:100B70000DF1040A4FF0000918E000240EE09AF885
:100B8000000080212141084203D14046FFF790FC3C
:100B900002E03846FFF78CFC601CC4B2082CEEDB88
:100BA0000AF1010A09F1010000F0FF09B9F1200F73
:100BB000E3DB80212A4801F04CFB09B0BDE8F08F4F
:100BC0002DE9F84305460E4617469846DDF8209075
:100BD0004C461CE043463A46314628460094FFF70F
:100BE000AEFF2078202801D1641C00E0A41CE02D79
:100BF00003DA05F11000C5B209E0B6F5987F04DA12
:100C0000002506F1100086B201E0002500262078BC
:100C10000028DFD1BDE8F8832DE9F84F05460E46E0
:100C200090469946DDF828A054463CE0207880287C
:100C300021DA27784B464246314628460097FFF78F
:100C400011FF641CE72D03DA05F10800C5B22AE0A4
:100C5000B6F5977F0CDC002506F1100086B222E085
:100C60000014014000000020F0050020381300208F
:100C70000025002617E04B464246314628460094A0
:100C8000FFF75DFFA41CDF2D03DA05F11000C5B2EC
:100C900009E0B6F5977F04DC002506F1100086B266
:100CA00001E00025002620780028BFD1BDE8F88F9C
:100CB0002DE9F04F93B005460E4617469846DDF8ED
:100CC00070B006F1180083B205F11800C2B23146C7
:100CD0002846FFF79FFEFFF7E0FB594601A8FFF704
:100CE00060FE0DF1040A4FF0000918E000240EE048
:100CF0009AF8000080212141084203D14046FFF7C5
:100D0000D7FB02E03846FFF7D3FB601CC4B2082CC7
:100D1000EEDB0AF1010A09F1010000F0FF09B9F167
:100D2000480FE3DB8021FE4801F093FA13B0BDE8E1
:100D3000F08F2DE9F84305460E4617469846DDF834
:100D400020904C4629E0D72D01DA012000E0002058
:100D5000B6F5937F01DC012100E0002108420CD0B0
:100D600043463A46314628460094FFF7A1FF2078D3
:100D7000202801D1641C00E0A41CD72D03DA05F162
:100D80001800C5B209E0B6F5937F04DC002506F132
:100D9000180086B201E00025002620780028D2D174
:100DA000BDE8F8832DE9FC4706460F469046994674
:100DB0000A9D03241BE075B10A2095FBF0F100FBAE
:100DC00011503030C1B2601E01AA11540A2095FBA7
:100DD000F0F0C5B209E0032C04D02021601E01AA66
:100DE000115402E030208DF80600601EC4B2002CC1
:100DF000E1DC00208DF8070001A84B464246394649
:100E000000903046FFF708FFBDE8FC872DE9FE4360
:100E100006460F46904699460A9D05241BE075B18B
:100E20000A2095FBF0F100FB11503030C1B2601E7A
:100E300001AA11540A2095FBF0F085B209E0052CB7
:100E400004D02021601E01AA115402E030208DF848
:100E50000800601EC4B2002CE1DC00208DF80900FF
:100E600001A84B464246394600903046FFF7D4FE73
:100E7000BDE8FE832DE9FF4706460F46904699469A
:100E80000C9D0A2419E065B10A20B5FBF0F100FBC6
:100E900011503030611E01AA50540A20B5FBF0F504
:100EA00009E00A2C04D02021601E01AA115402E09E
:100EB00030208DF80D00601EC4B2002CE3DC002051
:100EC0008DF80E0001A84B46424639460090304648
:100ED000FFF7A2FEBDE8FF872DE9F05F06460F464B
:100EE00014461D46DDF82890A01B00F0FF0AE81B01
:100EF0001FFA80FB681C83B2601CC2B239463046C0
:100F0000FFF788FDFFF7C9FA4FF40061844801F04C
:100F1000A0F94FF0000804E04846FFF7C9FA08F1CD
:100F200001080AF101000BF1010148434045F3D8E3
:100F300080217B4801F08DF9BDE8F09F2DE9F0415B
:100F400004460D46164605F1100083B204F1080070
:100F5000C2B229462046FFF75DFDFFF79EFA4FF427
:100F600000616F4801F075F9002703E03046FFF794
:100F70009FFA7F1C802FF9D38021694801F069F91D
:100F8000BDE8F081F8B504460D4616462B462246CC
:100F9000294620460096FFF79FFFF8BD2DE9F04156
:100FA00005460E4614461F46701C83B22819401C85
:100FB000C2B231462846FFF72DFDFFF76EFA00BF9B
:100FC0003846FFF775FA601E84B2002CF8D18021F4
:100FD000534801F03EF9BDE8F0812DE9F0410546A6
:100FE0000E4614461F46DDF81880701C83B228197F
:100FF000401CC2B231462846FFF70CFDFFF74DFA00
:1010000000BF032094FBF0F100FB114018B93846F3
:10101000FFF74EFA02E04046FFF74AFA601E84B23C
:10102000002CEED180213E4801F013F9BDE8F0819B
:101030002DE9F04105460E4614461F463019401C66
:1010400083B2681CC2B231462846FFF7E3FCFFF7C3
:1010500024FA00BF3846FFF72BFA601E84B2002C3A
:10106000F8D180212E4801F0F4F8BDE8F0812DE997
:10107000F04105460E4614461F46DDF8188030192B
:10108000401C83B2681CC2B231462846FFF7C2FC3E
:10109000FFF703FA00BF032094FBF0F100FB1140BF
:1010A00018B93846FFF704FA02E04046FFF700FAA5
:1010B000601E84B2002CEED18021194801F0C9F8DD
:1010C000BDE8F0812DE9F04704460F4615461E465F
:1010D000DDF820A0F01B1FFA80F8281B1FFA80F90A
:1010E00008F101018AB2E0B253463946FFF7A0FF8A
:1010F00008F101018AB2E8B253463946FFF798FF7A
:1011000009F101018AB2E0B253463946FFF746FFC2
:1011100009F101018AB2E0B25346314602E0000013
:1011200000140140FFF73AFFBDE8F0872DE9F05FBA
:101130008046894615461E46DDF828A00027002473
:10114000A34609EB060083B208EB0500C2B249468C
:101150004046FFF75FFCFFF7A0F905FB06F04FF6EE
:10116000FF7101EA400B00BF601C1AF800704FF6D7
:10117000FF7000EA07271AF8040007433846FFF714
:1011800097F9A01C84B25C45EEDB8021024801F097
:1011900060F8BDE8F09F000000140140704700BFF8
:1011A000411EC9B20800FBD17047002100BF0821D1
:1011B00000BF4A1ED2B21100FBD1421E92B21000F3
:1011C000F5D1704700BF072100BF0B2200BF531E9F
:1011D0009BB21A00FBD14B1E9BB21900F5D1431EE6
:1011E0009BB21800EFD1704700BF422100BF1E2202
:1011F00000BF531EDBB21A00FBD14B1EDBB219003D
:10120000F5D1431EDBB21800EFD17047652000BF57
:10121000582100BF4A1E92B21100FBD1421E92B269
:101220001000F5D1704700BF772100BF432200BFF7
:10123000531E9BB21A00FBD14B1E9BB21900F5D175
:10124000431E1800F0D1704700BF40F2712100BF6B
:101250003F2200BF531E9BB21A00FBD14B1E9BB214
:101260001900F5D1431E9BB21800EED1704700BFA4
:101270004FF47A7100BF40F2012200BF531E9BB2AF
:101280001A00FBD14B1E9BB21900F4D1431EDBB2F6
:101290001800EDD1704700E0401E0028FCD17047D7
:1012A0002DE9F04F8DB00021802000F095FC012148
:1012B000802000F091FC022000F098FC05900320B3
:1012C00000F094FC8146002000F090FC0490002087
:1012D0005A23D6224A2100905620FFF7E3FA0598B8
:1012E00003F048FA074603F0E9F805462A460B469C
:1012F000FEA108A801F05EFC08A800234FF6E072EA
:101300004A2100905E20FFF787FC00207523D6223B
:10131000652100905620FFF7C5FA484603F02AFAE7
:10132000074603F0CBF805462A460B46EFA108A86E
:1013300001F040FC08A800234FF6E0726521009000
:101340005E20FFF769FC059802F0BCFECDE90201C2
:10135000484602F0B7FE82460022E64B02F0C6FE87
:10136000CDE90001DDE9022302F054FD0746002229
:10137000E14B02F0BBFE054602F072FC07904FF015
:101380007E51079803F00AFA7DD200209023D622DE
:10139000802100905620FFF785FA079803F08EF819
:1013A00005462A460B46D5A108A801F003FC08A86B
:1013B00000234FF6E072802100905E20FFF72CFCA6
:1013C000642109FB01F002F07DFECDE902010598E0
:1013D00002F078FE82460022C64B02F087FE0746E6
:1013E000DDE9022302F016FD054602F039FC044651
:1013F0000020AB23D6229B2100905620FFF752FA03
:10140000204603F05BF805462A460B46BDA108A816
:1014100001F0D0FB08A800234FF6E0729B2100905A
:101420005E20FFF7F9FB0020C623D622B6210090EC
:101430005620FFF737FA049803F09CF98046B34929
:1014400003F0D6F8054603F039F8064632460B4657
:10145000ACA108A801F0AEFB08A800234FF6E0728B
:10146000B62100905E20FFF7D7FB0020E123D622B3
:10147000D12100905620FFF715FA049803F07AF96D
:101480008246A24900E019E003F0B2F88046214606
:1014900003F003FA054603F011F8064632460B4600
:1014A0009BA108A801F086FB08A800234FF6E07274
:1014B000D12100905E20FFF7AFFB57E196490798D6
:1014C00003F06CF97ED200209023D6228021009078
:1014D0005620FFF7E7F9079802F0F0FF05462A4685
:1014E0000B468EA108A801F065FB08A800234FF663
:1014F000E072802100905E20FFF78EFB642109FBE3
:1015000001F002F0DFFD05460E46059802F0DAFD17
:1015100082460022774B02F0E9FD07462A46334611
:1015200002F078FCCDE9020102F09AFB04460020AB
:10153000AB23D6229B2100905620FFF7B3F920461B
:1015400002F0BCFF05462A460B4674A108A801F02C
:1015500031FB08A800234FF6E0729B2100905E202B
:10156000FFF75AFB0020C623D622B6210090562052
:10157000FFF798F9049803F0FDF88046634903F0FB
:1015800037F8054602F09AFF064632460B4663A13D
:1015900008A801F00FFB08A800234FF6E072B6215F
:1015A00000905E20FFF738FB0020E123D622D121F6
:1015B00000905620FFF776F9049803F0DBF8824696
:1015C000524900E019E003F013F88046214603F089
:1015D00064F9054602F072FF064632460B4651A1F9
:1015E00008A801F0E7FA08A800234FF6E072D1211D
:1015F00000905E20FFF710FBB8E000209023D62279
:10160000802100905620FFF74DF9079802F056FF11
:1016100005462A460B463BA108A801F0CBFA08A8CC
:1016200000234FF6E072802100905E20FFF7F4FA6D
:10163000642109FB01F002F045FD07468846059844
:1016400002F040FD00222B4BCDE9020102F04EFDDD
:1016500082463A46434602F0DDFB054602F000FBB7
:1016600004460020AB23D6229B2100905620FFF792
:1016700019F9204602F022FF05462A460B461FA113
:1016800008A801F097FA08A800234FF6E0729B2102
:1016900000905E20FFF7C0FA0020C623D622B621B4
:1016A00000905620FFF7FEF8049803F063F8804698
:1016B000164902F09DFF054602F000FF064632463D
:1016C0000B460EA108A801F075FA08A800234FF6F2
:1016D000E072B62100905E20FFF79EFA0020E12321
:1016E000D622D1210090562020E000002531302E56
:1016F000306600000000F03F84D7974125382E3532
:101700006600000025382E33660000000000C84245
:1017100025362E33660000000000204125382E3487
:101720006600000025362E3466000000FFF7BAF888
:10173000049803F01FF882462D4902F059FF8046B5
:10174000214603F0AAF8054602F0B8FE06463246E6
:101750000B4628A108A801F02DFA08A800234FF68F
:10176000E072D12100905E20FFF756FA204602F089
:10177000A5FE05460E46049802F0A4FC074600228A
:101780001E4B02F0B3FC2A463346CDE9020102F0BB
:1017900041FB824602F064FA0690069802F08EFE43
:1017A0000746174A174B02F08DFA054602F058FA21
:1017B00006900020FB23D622EB2100905620FFF755
:1017C00071F8069802F07AFE05462A460B460EA1ED
:1017D00008A801F0EFF908A800234FF6E072EB210A
:1017E00000905E20FFF718FA0DB0BDE8F08F000002
:1017F0000000C84225362E35660000000000F03F8C
:101800007B14AE47E17A943F25332E326600000008
:1018100008B50121042000F0A9FB0D20ADF800005F
:1018200003208DF8020010208DF803006946FC4863
:1018300000F064FC0220ADF8000048208DF80300A1
:101840006946F74800F05AFC0121F54800F001FD17
:101850000421F34800F0FDFC0821F14800F0F9FCF8
:1018600008BD08B50121282000F080FB0121ED48CA
:1018700000F013FD2820ADF8000003208DF80200D1
:1018800010208DF803006946E74800F037FC10206F
:10189000ADF8000048208DF803006946E24800F0EA
:1018A0002DFC4820ADF8000003208DF80200102028
:1018B0008DF803006946DD4800F020FC4021DB483C
:1018C00000F0C7FC0821D94800F0C3FC08BD08B5EA
:1018D0000121082000F04AFB4FF4F040ADF8000071
:1018E00003208DF8020010208DF803006946CE48D1
:1018F00000F004FC4FF40040ADF8000048208DF8E3
:1019000003006946C84800F0F9FB4FF40061C6487F
:1019100000F09FFC4FF48041C34800F09AFC4FF464
:101920000051C14800F095FC4FF48051BE4800F0D2
:1019300090FC08BD08B50121282000F017FB01210B
:10194000B84800F0AAFC2820ADF8000003208DF86C
:10195000020010208DF803006946B34800F0CEFB6A
:101960001020ADF8000048208DF803006946AE480D
:1019700000F0C4FB4820ADF8000003208DF8020001
:1019800010208DF803006946A84800F0B7FB4021FD
:10199000A64800F05EFC0821A44800F05AFC08BDEF
:1019A00010B50446012C06D0022C07D0032C08D019
:1019B000042C0CD108E0FFF7BDFF09E0FFF787FF1B
:1019C00006E0FFF74EFF03E0FFF722FF00E000BF55
:1019D00000BF10BD704770477047704700B50128C1
:1019E00006D0022807D0032808D004280CD108E02C
:1019F000FFF7F3FF09E0FFF7EFFF06E0FFF7EBFF6C
:101A000003E0FFF7E7FF00E000BF00BF00BD10B537
:101A100004462046FFF7C4FF10BD70B504460025FC
:101A200000BF17E014F0800F04D020217E4800F0A2
:101A300010FC03E020217C4800F00DFC6006040E41
:101A40000821794800F007FC0821774800F001FCE4
:101A5000681CC5B2082DE5DB70BD70B500250024FB
:101A6000082522E00821704800F0F3FB7048007858
:101A700020B908216C4800F0EEFB0BE06D480088AF
:101A8000FFF793FB0821684800F0E5FB69480088F0
:101A9000FFF78BFB6006040E1021634800F0BFFBCC
:101AA00008B144F00104681EC5B2002DDADC08213B
:101AB0005D4800F0CEFB204670BD70B506460C4672
:101AC00000252046FFF7A9FFFFF7C7FF0546284678
:101AD00070BD584A1180704770B504464FF40051EC
:101AE000514800F0B8FB00251BE004F0800080287E
:101AF00004D101014C4800F0ACFB04E04FF400615C
:101B0000494800F0A8FB6006040E4FF480414648A7
:101B100000F0A1FB4FF48041434800F09AFB681CA1
:101B2000C5B2082DE1DB4FF400513F4800F091FBB6
:101B300070BD70B504464FF480513B4800F08BFBFC
:101B400000251CE004F00040B0F1004F05D14FF437
:101B50000061354800F07DFB04E04FF4006132483D
:101B600000F079FB64004FF480412F4800F073FBD4
:101B70004FF480412C4800F06CFB681CC5B2202D4E
:101B8000E0DB4FF48051284800F063FB70BD70B576
:101B900000244FF48051244800F05DFB002512E042
:101BA0004FF48041204800F054FB4FF480411E4820
:101BB00000F051FB64004FF400411B4800F02FFB84
:101BC0000443681CC5B2202DEADB4FF4805116484F
:101BD00000F03FFB204670BD70B505460C46284618
:101BE000FFF77AFF2046FFF7A4FF70BD10B504464B
:101BF0002046FFF771FFFFF7CAFF10BD70B504461E
:101C0000002525E00821064800F025FB04F08000AF
:101C1000802811D10421024800F01BFB10E00000D5
:101C20000008014000023000000C01400014014097
:101C30006E1800206C1800200421184800F00BFBDF
:101C40006006040E0821154800F003FB681CC5B2AD
:101C5000082DD7DB70BD70B5002513E06006040EBB
:101C600008210E4800F0F5FA08210C4800F0F3FABC
:101C700002210A4800F0D3FA012801D144F00104FE
:101C8000681CC5B2082DE9DB204670BD10B50446BE
:101C90002046FFF7B3FFFFF7DEFF10BD000801404D
:101CA000DB48006840F00100D949086008464068F8
:101CB000D8490840D649486008460068D6490840D7
:101CC000D34908600846006820F480200860084670
:101CD000406820F4FE0048604FF41F0088607047A1
:101CE000CB49096821F48031C94A1160114609685D
:101CF00021F480211160B0F5803F03D0B0F5802F32
:101D00000ED106E0C249096841F48031C04A116031
:101D100007E0BF49096841F4A021BD4A116000E015
:101D200000BF00BF704710B501460022002300200D
:101D30004A11012A02D1B64C236806E0022A02D1D8
:101D4000B34C236A01E0B24C636A01F01F02012424
:101D500094401C4201D0012000E0002010BD70B56D
:101D600000240025002600BF3120FFF7DCFF0646D7
:101D7000641CB4F5A06F01D0002EF5D03120FFF720
:101D8000D2FF08B1012500E00025284670BD0146BC
:101D900000209F4A106820F0F80040EAC10010605F
:101DA00070479E490860704702460020984B58686B
:101DB00020F47C1042EA01031843954B58607047A9
:101DC00096490866704701460020914A506820F005
:101DD00003000843506070478D48406800F00C00D5
:101DE0007047014600208A4A506820F0F0000843FE
:101DF0005060704701460020854A506820F4E0603A
:101E000008435060704701460020814A506820F422
:101E1000605040EAC1005060704729B17C4A527A54
:101E200002437B4B5A7204E0794A527A8243784BE0
:101E30005A7270477A490860704701460020744A18
:101E4000506820F440400843506070470021754AB4
:101E500011706F4A82F82010012802D0042808D19E
:101E600003E001216F4A117004E005216D4A1170F1
:101E700000E000BF00BF70476B49086070476449CD
:101E8000096A0143624A1162704767494439086030
:101E9000704730B500210022002400235C4D6D689E
:101EA00005F00C0121B1042905D0082923D105E052
:101EB0005E4D056022E05D4D05601FE0544D6D688C
:101EC00005F47012524D6D6805F48034022505EB5F
:101ED00092421CB9564D554305600BE04C4D6D6860
:101EE00015F4003F03D0524D5543056002E04F4DBD
:101EF0005543056002E04D4D056000BF00BF444DF5
:101F00006D6805F0F00109094A4D6B5C0568DD401C
:101F100045603F4D6D6805F4E061090A454D6B5C15
:101F20004568DD4085603A4D6D6805F46051C90A29
:101F3000404D6B5C4568DD40C560354D6D6805F40E
:101F40004041890B3C4D6B5CC568B5FBF3F5056101
:101F500030BD29B12E4A526902432D4B5A6104E02B
:101F60002B4A526982432A4B5A61704729B1284A49
:101F700092690243264B9A6104E0254A92698243A2
:101F8000234B9A61704729B1214AD2690243204B01
:101F9000DA6104E01E4AD26982431D4BDA61704760
:101FA00029B11B4AD2680243194BDA6004E0184A8F
:101FB000D2688243164BDA60704729B1144A12691D
:101FC0000243134B1A6104E0114A12698243104B19
:101FD0001A61704714494039086070470F49C86456
:101FE00070470B49C87170470948406A40F08070DB
:101FF00007494862704701460020054A92680A4234
:1020000001D0012000E0002070470149887270472C
:10201000001002400000FFF8FFFFF6FE0000424201
:10202000D8004242201002408004424200127A004E
:1020300000093D006F1800207F18002010B50446ED
:10204000CA48844208D101210420FFF7A9FF0021DA
:102050000420FFF7A5FF46E0C548844208D10121CE
:102060000820FFF79DFF00210820FFF799FF3AE0C5
:10207000C048844208D101211020FFF791FF0021C0
:102080001020FFF78DFF2EE0BB48844208D10121CC
:102090002020FFF785FF00212020FFF781FF22E0AD
:1020A000B648844208D101214020FFF779FF002182
:1020B0004020FFF775FF16E0B148844208D10121A6
:1020C0008020FFF76DFF00218020FFF769FF0AE005
:1020D000AC48844207D101218015FFF761FF002140
:1020E000A015FFF75DFF10BD10B501210846FFF7F1
:1020F00057FF00210120FFF753FF10BD2DE9F041EC
:10210000024600250026002000230024002791F825
:1021100003C00CF00F0591F803C01CF0100F03D0A2
:1021200091F802C04CEA050591F800C0BCF1000F1F
:1021300031D0146800202BE04FF0010C0CFA00F3B2
:10214000B1F800C00CEA03069E4220D183004FF094
:102150000F0C0CFA03F7BC4305FA03FC4CEA040429
:1021600091F803C0BCF1280F06D14FF0010C0CFA16
:1021700000FCC2F814C00AE091F803C0BCF1480F9B
:1021800005D14FF0010C0CFA00FCC2F810C0401C45
:102190000828D1D31460B1F800C0BCF1FF0F34DDC2
:1021A000546800202EE000F1080C4FF0010808FAF6
:1021B0000CF3B1F800C00CEA03069E4221D1830063
:1021C0004FF00F0C0CFA03F7BC4305FA03FC4CEA82
:1021D000040491F803C0BCF1280F05D100F1080CEC
:1021E00008FA0CF8C2F8148091F803C0BCF1480F4B
:1021F00007D100F1080C4FF0010808FA0CF8C2F8FA
:102200001080401C0828CED35460BDE8F0814FF602
:10221000FF710180022181700421C1707047024664
:10222000002093680B4201D0012000E0002070479D
:102230000146886880B2704702460020D3680B428E
:1022400001D0012000E0002070470146C86880B23C
:10225000704701617047416170470AB1016100E058
:1022600041617047C16070474FF480320A43826118
:102270008161826182698269704702460020424B17
:1022800018684FF68073184040EA021008433E4B2E
:10229000186070473D49C8617047F0B50A46002391
:1022A00000240021002500F00046B6F1004F02D1C5
:1022B000354EF16901E0344E7168C0F3034583B2D5
:1022C00000F44016B6F5401F08D121F070612E4E83
:1022D000766826F070662C4F7E6012E000F480165F
:1022E000B6F5801F06D1032606FA05F4A14341F096
:1022F000706106E0460D360103FA06F6B14341F07F
:10230000706122B1460D360103FA06F6314300F042
:102310000046B6F1004F02D11B4EF16101E01A4EAA
:102320007160F0BD30B500228B071C0F0F2303FA3C
:1023300004F2154B08338C1053F824309343124C9D
:1023400008348D1044F8253023468C1053F824307F
:102350008C07240F00FA04F423430B4C08348D102F
:1023600044F8253030BD0A49086070470008014034
:10237000000C014000100140001401400018014011
:10238000001C0140002001400000014000002042EC
:10239000DC00204230B943F2DB014FF0204242F82A
:1023A000201005E043F2D2014FF0204242F8201005
:1023B0006FF07042411C4FF0204343F8212011463A
:1023C0001A4602EB8002C2F80411704710280AD1A5
:1023D00018214FF020421166402151664FF0FC3128
:1023E0009166D16610E01821F84A11604FF0400163
:1023F0004FF02042C2F884104FF0FC31F44A1160D3
:102400004FF02042C2F88C1070471820F149086044
:102410004FF000004FF02041C1F8A4004FF0FC3015
:10242000ED49086001F10401086001F10401086050
:102430007047D0E901121143C26811430269114388
:102440004269114382691143C2691143026A11430F
:10245000426A1143826A1143C26A1143026B1143FB
:102460004FF02043026843F822108168082908D100
:102470001A46016852F8211041F04001026843F801
:102480002210416B0968426B526841EA0211426BAB
:10249000926841EA0221426B928941EA0241426B11
:1024A000128A41EA0251426B127D41EA0261426B9B
:1024B000926911430268521C4FF0204343F82210E6
:1024C000C16AB1F5804F1AD1816B0968826B52687D
:1024D00041EA0211826B926841EA0221826B128A00
:1024E00041EA0251826B127D41EA0261826B92697C
:1024F0001143026803EB8202C2F8041108E06FF096
:1025000070414FF02043026803EB8202C2F80411CD
:10251000704730B5002100220023446844F00804CD
:1025200085682C43C5682C4305692C43456944EAFA
:102530004524856944EA4531C4692468C5696D68E4
:1025400044EA0524C5692D8944EA0544C5692D7B03
:1025500044EA0562046A2468056A6D6844EA052451
:10256000056A2D8944EA0544056A2D7B44EA056322
:102570000468102C05D14FF020442166A266E36662
:1025800007E0924C21604FF02044C4F88820934C1F
:10259000236030BD016841F01001426841EA4221E8
:1025A000826841EA42318B4A1160C1680968C26899
:1025B000526841EA0221C268128941EA0241C268B6
:1025C000127B41EA0261844A11600169096802696B
:1025D000526841EA02210269128941EA0241026914
:1025E000127B41EA02617E4A1160416909684269D1
:1025F000526841EA02214269128941EA0241426974
:10260000127B41EA02614FF02042C2F8B0107047DD
:10261000002101600221416000218160C1600161EF
:1026200041618161C16101624FF4805141624900A1
:1026300081620021C16201630F21426B1160426B14
:102640005160FF21426B91600F21426BD160426B60
:102650001161426B51610021426B91610F21826BCC
:102660001160826B5160FF21826B91600F21826B40
:10267000D160826B1161826B51610021826B91612B
:10268000704710210160002141608160C1600161DB
:1026900041618161FC21C2691160C2695160C269F6
:1026A0009160C269D160026A1160026A5160026A77
:1026B0009160026AD16070470021016041608160D1
:1026C000FC21C2681160C2685160C2689160C26832
:1026D000D16002691160026951600269916002690A
:1026E000D1604269116042695160426991604269FA
:1026F000D160704751B14FF0204252F8202042F093
:1027000001024FF0204343F8202009E04FF020421F
:1027100052F82020334B1A404FF0204343F820203A
:10272000704799B1102808D14FF02042126E42F044
:1027300004024FF020431A661DE0244A126842F05A
:1027400004024FF02043C3F8802014E0102809D180
:102750004FF02042126E234BDB1E1A404FF02043F5
:102760001A6608E0194A12681F4B02EA03024FF08A
:102770002043C3F88020704740B11649096841F0F2
:1027800004014FF02042C2F8A01008E01149096886
:10279000154A01EA02014FF02042C2F8A01070472A
:1027A00099B1102808D14FF02042126E42F0400239
:1027B0004FF020431A662DE0044A126842F04002AE
:1027C0004FF02043C3F8802024E00FE0800000A0F9
:1027D000880000A0A00000A0A80000A08C0000A01D
:1027E000AC0000A0FEFF0F00FBFF0F00102808D177
:1027F0004FF02042126E684B1A404FF020431A6689
:1028000008E0664A1268644B02EA03024FF0204374
:10281000C3F88020704701460020102903D14FF0F3
:102820002042506F01E05E4A1068704710B5F2B167
:10283000102807D14FF020435B6E0B434FF020442C
:10284000636632E0B0F5807F08D1564B1B6843EADF
:1028500001034FF02044C4F8843026E0524B1B683B
:1028600043EA01034FF02044C4F8A4301DE01028CF
:1028700007D14FF020435B6E8B434FF020446366DB
:1028800013E0B0F5807F08D1464B1B6823EA0103B3
:102890004FF02044C4F8843007E0434B1B6823EA20
:1028A00001034FF02044C4F8A43010BD10B5024617
:1028B00000200023102A03D14FF02044636E07E06C
:1028C000B2F5807F02D1374C236801E0364C236893
:1028D0000B4201D0012000E0002010BD102807D1DC
:1028E0004FF02042526E8A434FF020435A6613E065
:1028F000B0F5807F08D12B4A126822EA01024FF01E
:102900002043C3F8842007E0274A126822EA010224
:102910004FF02043C3F8A420704770B50246002052
:10292000002300240025102A03D14FF02046736EA7
:1029300007E0B2F5807F02D11A4E336801E01A4EEB
:10294000336803EA010403EAD10514B10DB1012093
:1029500000E0002070BD102808D14FF02042526ED8
:1029600022EAD1024FF020435A6613E0B0F5807F8F
:1029700008D10C4A126822EAD1024FF02043C3F872
:10298000842007E0084A126822EAD1024FF020436F
:10299000C3F8A42070470000BFFF0F00800000A014
:1029A000940000A0840000A0A40000A0002100204A
:1029B000674A126842F48032654B1A6000BF644A6D
:1029C000126802F40030491C10B9B1F5A06FF6D1BD
:1029D0005F4A126812F4003F01D0012000E000209D
:1029E000012842D15B4A126842F01002594B1A602A
:1029F0001A46126822F003021A601A46126842F060
:102A000002021A60524A5268514B5A601A46526882
:102A10005A601A46526842F480625A601A465268F6
:102A200022F47C125A601A46526842F4E8125A6044
:102A30001A46126842F080721A6000BF444A126857
:102A400012F0007FFAD0424A526822F00302404B53
:102A50005A601A46526842F002025A6000BF3C4A6D
:102A6000526802F00C02082AF9D1704710B5FFF73E
:102A70009DFF10BD10B53648006840F00100344994
:102A800008600846406834490840314948600846B3
:102A90000068324908402E4908600846006820F462
:102AA000802008600846406820F4FE0048604FF42B
:102AB0001F008860FFF7DAFF4FF0006028490860C8
:102AC00010BD10B5002100200022214B5B6803F0EF
:102AD0000C0121B1042906D0082928D107E0214B97
:102AE000214C236027E01F4B1F4C236023E0184B31
:102AF0005B6803F47010164B5B6803F480320223AA
:102B000003EB904022B9194B4343174C23600DE06F
:102B10000F4B5B6813F4003F04D0144B4343124C3B
:102B2000236003E00F4B43430F4C236003E00D4B46
:102B30000D4C236000BF00BF054B5B68C3F303135C
:102B40000B4CE15C084B1B68CB40074C236010BD6D
:102B500000100240002002400000FFF8FFFFF6FED8
:102B600008ED00E000127A008418002000093D0002
:102B7000881800200948804709480047FEE7FEE71B
:102B8000FEE7FEE7FEE7FEE7FEE7FEE7FEE7FEE71D
:102B900004480549054A064B70470000752A00089D
:102BA00031010008F8180020F81E0020F81A002053
:102BB000F81A00200FB41CB5074B06AA7B446946DF
:102BC0000090059800F0D3FA0020694600F0E2FA80
:102BD0001CBC5DF814FB0000D505000070B5044670
:102BE00085690068C10601D5302600E02026C007AF
:102BF00008D070BDD4E9012130469047206A00F129
:102C0000010020626D1EF5D570BD70B50446856962
:102C10000078C00708D170BDD4E901212020904779
:102C2000206A00F1010020626D1EF5D570BD2DE90E
:102C3000F0474FF0000A89460446C0F820A020461D
:102C4000E1688847002876D0252806D0D4E90121FC
:102C50009047206A401C2062F1E7E1682046002589
:102C60008847C4F81CA006460027C4F818A02A2EDE
:102C700009D0304600F0D6FF38B304EB8708303E69
:102C8000C8F8186019E059F8041B204604EB8702C5
:102C90009161E1688847012F064618D1E069002854
:102CA00020DA25F020051DE0D8F8180000EB8000A0
:102CB00006EB40003038C8F818002046E168884725
:102CC000064600F0AFFF0028EED1012F0AD02E2ECD
:102CD00008D12046E16888477F1C0646022F45F050
:102CE0002005C4DBA069002803DA404245F0010555
:102CF000A061E80701D025F01005B6B1A6F14100AA
:102D0000192802D8203645F400654A463146204647
:102D100025604D46FDF766FA58B1012806D0ED1D35
:102D200025F0070000F1080989E704E005F104092E
:102D300085E730468AE7206ABDE8F087704770472C
:102D4000704770472DE9FF4F0C461E464FF0FF3786
:102D50008BB0D2E90001DDF860800A908A46C1F3A9
:102D60000A5505B93D46002108464FF00000BAF16A
:102D7000000F00F4400005DA00EB80004FF4400142
:102D800001EA50004FEA9059B9F1010F00DDB94650
:102D90000A9850EA4A000ED044F61050A5F2FF35CA
:102DA00045432F14B8F1000F1ED07542291E1EDDB9
:102DB000C9F100021CE0B8F1010F4FF0000001D092
:102DC000302103E0F24305E02154401CB042FBDB1C
:102DD00030460022002121540B99C1F80880C1E936
:102DE00000200FB0BDE8F08FBD1B6D1CDEE74A462A
:102DF00000DA694206A800F05DFA06AB07CB03AB28
:102E000007C350460A9900F03EFB8DE80700A0F585
:102E100000501F3800900398002D09DD42F21F0179
:102E20004A46084403A90390684600F09DFD08E067
:102E3000A0F500504A461F3803A90390684600F0E9
:102E4000A7FD8DE807000004000C03D04FF0FF3011
:102E5000410800E01046B8F1000F03D000220092B4
:102E600015461FE0751E06D400F09EF902F13002EF
:102E700062556D1EF8D5B3460122084302D00022E8
:102E80007F1C04E02078302801D100227F1E002A18
:102E9000099787D01DE0112D07DA00F085F930324F
:102EA00062556D1C50EA0102F5D108430FD1002193
:102EB000681E05E0235C625C6354491C2254401E7A
:102EC0008142F7DBAB46A81B401E099001E0009849
:102ED00048B1002004F80B000B98099AC0F808804C
:102EE000C0E9002B7DE711264FF000085AE72DE9D5
:102EF000F04F88460446D21D22F0070191B0D1E977
:102F00000001CDE90A0100F079FE02460B98C00FDE
:102F100001D02D2007E02068810701D52B2002E099
:102F2000202101EAC000032A099001D0072A05DB0D
:102F300003464146204600F07DF90FE120788006E7
:102F400001D5E06900E00620B8F1650F814606D0A2
:102F5000B8F1660F18D0B8F1670F72D132E00020D7
:102F6000B9F1110F009001DB112301E009F1010318
:102F70000AAA01A90CA8FFF7E5FEDDE90C700026FE
:102F800009F10105834648E001204B4600904FF0CF
:102F900000470AAA01A90CA8FFF7D4FEDDE90DB08D
:102FA0000C995D46002618B909F1010001EB0005F6
:102FB000B9EB050003D4C0F1FF3609F10105A5EB1B
:102FC00009002BE0B9F1010F01DA4FF001090020EF
:102FD000B9F1110F0090484601DD112300E00346CE
:102FE0000AAA01A90CA8FFF7ADFEDDE90C704D4659
:102FF00000268346207800070AD4AB4500DA5D46F8
:1030000001A8012D04DD411911F8011C302907D058
:103010004F4502DA17F1040F04DA0120824610E06E
:103020006D1EEEE7002F02DCED1B3E4403E0781C32
:10303000A84200DD0546A7EB060000F1010A4FF0AB
:1030400000472078000703D4AA4501DB4FF0FF3A80
:103050000021B7F1004F0DF143088DF8431023D044
:1030600002202B23002F01DA7F422D234FF00A0C80
:10307000011EA0F1010000DC4FB197FBFCF10CFB3D
:1030800011720F4602F1300208F8012DF0E7A8F1A5
:10309000010003702188090501D5452100E0652163
:1030A000A0F1010800F8011C09980FA9A1EB08077D
:1030B00007F1070700B1012000EB050101EBEA7001
:1030C000A1693844A1EB0000A0F10100A0612078C3
:1030D000C00602D42046FFF781FD099830B1D4E93B
:1030E00001219047206A00F1010020622078C0068B
:1030F00020D52046FFF772FD1CE0002E04DBB3450F
:1031000002DD01A8805D00E03020D4E90121904774
:10311000206A761C401CBAF1010A20620AD100F034
:103120003FF8C0680168405CD4E901219047206AFB
:10313000401C2062281EA5F10105DEDC07E0D4E971
:10314000012118F8010B9047206A401C2062381EAC
:10315000A7F10107F3DC2046FFF757FD022011B06D
:1031600040E6000001694A1C02610878704700B51A
:103170008FB0CDE901310021059105497944CDE9B0
:10318000031011466846FFF752FD0FB000BD000066
:10319000E5FFFFFF0A6802F8010B0A6070470000B4
:1031A00000487047B818002030B5B0F10A024FEA65
:1031B000900E71F100034EEA817EB0EB0E0061EBE0
:1031C00091014FEA101E4EEA017E10EB0E0041EB1A
:1031D00011114FEA102E4EEA016E10EB0E0041EB7A
:1031E00011214FEA104E4EEA014E10EB0E0041EB5A
:1031F0001141401841F100014FEAD00040EA41700E
:103200004FEAD10110EB80054FEA810444EA907443
:1032100044EB01046D1944EB0404521BA3414FF02D
:10322000000348BF0A3200D530BD401C41F1000107
:1032300030BD00002DE9F0411F4604460326016819
:10324000072A01F4006004DB08B116A505E016A505
:1032500003E008B115A500E015A521F010002060DD
:10326000A069C01EA0610FB1401EA0612046FFF7FB
:10327000B5FC4FB1D4E9012138469047206A401C83
:103280002062C01C206206E0206AFAE7D4E901212E
:1032900015F8010B9047761EF8D22046FFF7B5FCD3
:1032A000BDE8F0814E414E006E616E00494E460011
:1032B000696E66002DE9F047814616468AB03548AA
:1032C0007844D0E9002380680092CDE9013031488C
:1032D00078440C38D0E90223006903924FF037029A
:1032E000CDE9043041F69B30014491FBF2F0A0F1AE
:1032F000800502FB10141B3C02D56442012000E053
:103300000020DFF890A080460027FA44AAF1C60A00
:103310000DE0E00709D03246684607EB47010AEBAB
:10332000810100F035FB8DE8070064107F1C002C44
:10333000EFD1184F7F44B43F17E0E80713D007EBF5
:1033400004100DF1180A90E80E00AAE80E00C068FB
:10335000F04201D198190890324606A903A800F05E
:1033600017FB03AB07C36D10641C002DE5D132467B
:103370006946B8F1000F03A802D000F0F5FA01E0A9
:1033800000F006FBC9E90001C9F808200AB0BDE851
:10339000F087000058170000004870479818002078
:1033A0007546FFF7F9FFAE4605006946534620F023
:1033B0000700854618B020B5FFF7EAFBBDE82040BE
:1033C0004FF000064FF000074FF000084FF0000BE1
:1033D00021F00701AC46ACE8C009ACE8C009ACE894
:1033E000C009ACE8C0098D4670470446AFF30080C1
:1033F0002046FCF711FF00004FF0013C50F8042B71
:1034000051F8043B9A4221D1A2EB0C03934313EAF7
:10341000CC1317D150F8042B51F8043B9A4215D124
:10342000A2EB0C03934313EACC130BD150F8042BFB
:1034300051F8043B9A4209D1A2EB0C03934313EADF
:10344000CC13DBD04FF00000704700BFD01A01BA98
:10345000B1FA81F101F0180122FA01F0CB40C1F17B
:103460002001DBB2C0B2C01A2CFA01F3D11A914389
:1034700011EAC311E6D1704701491820ABBEFEE73F
:103480002600020070475FEA400C08BF91F0000F71
:103490004FEA8C234FEAC12243EA51514FEA1C50B4
:1034A00018BF00F5F0404FEA300018BF41F000416E
:1034B0005FEA6C5C00F02980BCF1FF3F08BF40F080
:1034C00080407047130C06BF12044FF0100C4FF0F1
:1034D000000C130E04BF12020CF1080C130F04BFF2
:1034E00012010CF1040C930F04BF92000CF1020CBA
:1034F000D30F04BF52000CF1010C11464FF0000233
:10350000A0F11F00A0EB0C00704711F0004F08BFA6
:10351000704731F000413FF4D5AF0B0C06BF0904F2
:103520004FF0100C4FF0000C0B0E04BF09020CF111
:10353000080C0B0F04BF09010CF1040C8B0F04BF26
:1035400089000CF1020CCB0F04BF49000CF1010CF7
:10355000CCF12003A0EB0C0022FA03F302FA0CF2E8
:1035600041EA030100F10100704720F07F4C80EA3E
:10357000030023F07F47ACEB070303F57C5300F017
:10358000004003F1FF032DE980494FEA154B09B4D0
:103590004FEA144325EA0B4E24EA03480FF20426AF
:1035A00006EB132749083E785FEA320203FB066701
:1035B000C7F5000707FB06F64FEA54374FEAD64631
:1035C00006F1020607FB066CCCF1005C4FEA1C47D3
:1035D0002CEA074C07FB06F40CFB06F504EB15463A
:1035E0004FEA961634BF00204FF000404FEAD13723
:1035F00006FB07FC4FEA1C4C0CFB0BF7D21B03FB32
:103600000CF761EB07010CFB0EF7B0EB074072EB18
:1036100017420CFB08F734BFA2EB0742B2EB07429C
:1036200061EB17414FEA0C444FEA910706FB07FC98
:103630004FEA1C4C0CFB0BF7B0EBC74072EB573258
:1036400003FB0CF734BFA2EBC742B2EBC74261EBFE
:1036500057310CFB0EF7B0EBC70072EB57720CFB47
:1036600008F734BFA2EBC702B2EBC70261EB577198
:10367000039F4FEA816141EA921104EBCC044FEAC7
:10368000D1374FEA826206FB07FC42EA90124FEA0A
:1036900080604FEA1C4C0CFB0BF7D21B03FB0CF7B2
:1036A00061EB07010CFB0EF7B0EB074072EB174222
:1036B0000CFB08F734BFA2EB0742B2EB074261EB09
:1036C00017414FEA8C554FEA910704EB9C2406FB07
:1036D00007FC4FEA1C4C0CFB0BF7B0EBC74072EB3E
:1036E000573203FB0CF734BFA2EBC742B2EBC74221
:1036F00061EB57310CFB0EF7B0EBC70072EB577262
:103700000CFB08F734BFA2EBC702B2EBC70261EBB8
:10371000577115EB4C254FEA816141EA92114FEA4E
:1037200082624FEAD13742EA901206FB07FC44F16D
:1037300000044FEA80604FEA1C4C0CFB0BF7D21BD5
:1037400003FB0CF761EB07010CFB0EF7B0EB074036
:1037500072EB17420CFB08F734BFA2EB0742B2EB47
:10376000074261EB174115EB1C154FEA813141EA25
:1037700092414FEA823242EA90424FEA80304FEA69
:103780000C7644F1000448EA03434EEA0B484FF03C
:10379000000EB2EB080C71EB030724BF62463946FA
:1037A0004EEB0E0E4FF0000B0018524149414BEB0F
:1037B0000B0BB2EB080C71EB03077BF1000B24BF82
:1037C000624639464EEB0E0E4FF0000B0018524188
:1037D00049414BEB0B0BB2EB080C71EB03077BF190
:1037E000000B24BF624639464EEB0E0E51EA02072B
:1037F00018BF46F0010616EB0E7655F1000254F1A3
:10380000000103D5BDE88901BDE80088BDE8890154
:10381000BDE80048B619524141EB0101A3F1010393
:10382000704780807F7E7D7C7B7A7978777676752D
:103830007473727171706F6E6E6D6C6C6B6A6A69A5
:103840006868676666656464636362616160605F3F
:103850005F5E5E5D5D5C5C5B5B5A5A5959585857B8
:103860005756565555555454535352525251515020
:1038700050504F4F4F4E4E4D4D4D4C4C4C4B4B4B73
:103880004A4A4A49494948484847474747464646B9
:1038900045454544444444434343434242424241F4
:1038A0004141002B26D4770021D01CB54FEA3707C1
:1038B00003B44FF010004FF010014FF000000FBCA8
:1038C000BDE810400BF1010BBBF1010F08BF5FEA2F
:1038D000170722BF12F1010211F101014FF000415F
:1038E00043F1000300F0004043EA00007047F9D3C1
:1038F0005708DAE746EA064613F1400F4FEA164644
:103900001FDD13F1200FDFBF16430A4600212033CD
:103910005B42C8D0C3F1200746EA064602FA07F721
:103920004FEA164646EA0706C3F1200722FA03F2D9
:1039300001FA07F721FA03F14FF0000342EA070208
:10394000B1E746EA020646EA06464FEA164646EA66
:103950000106BCBF46EA0646360C4FF000034FF0A6
:1039600000024FF000019EE72DE9C048934630B4B5
:1039700091E8380007C831EA400C48BF34EA430CEC
:1039800003D5FFF7F2FDFFF78CFFF0BCBDE8008820
:103990002DE9C048934630B491E8380007C810F0CC
:1039A000804F08BF13F0804F03D100F005F8FFF7F8
:1039B00078FFF0BCBDE8008820F07F4780EA030074
:1039C00023F07F4C07EB0C03A3F57C5300F0004081
:1039D000A3F1FE0392F0000F00F0B38095F0000F0A
:1039E00000F077802DE901494FEA11404FEA144673
:1039F00021EA004800FB06FC24EA064708FB06F61D
:103A000007FB08F800FB07F718EB06484CEB164CD1
:103A10004FEA124B18EB07484FEA15464CEB17409C
:103A200022EA0B4E0BFB06FC25EA06470EFB06F6C8
:103A300007FB0EFE0BFB07F71EEB064E4CEB164C7E
:103A40004FF000061EEB074E4CEB174B18EB0B0824
:103A500040F1000018EB0E0B58EB000840F100009D
:103A60008F1A4FF000013CBFC943661B14BFB5EB72
:103A7000040C00213CBFC943F61B4FEA17444EEA31
:103A80008E0E27EA04454FEA1C4704FB07622CEA26
:103A9000074C05FB07F70CFB05F604FB0CFC16EBCB
:103AA000074642EB174216EB0C4642EB1C421BEB5F
:103AB000060658EB0202414146EA9E0601D5BDE8E2
:103AC0000189B619524141EB0101A3F10103BDE89F
:103AD00001894FEA14454FEA114724EA054621EAD5
:103AE000074C05FB07F406FB07F70CFB06F105FB8B
:103AF0000CFC11EB074144EB17444FEA124711EB62
:103B00000C4144EB1C4422EA074C05FB07F206FB80
:103B100007F70CFB06F605FB0CFC16EB074642EB21
:103B2000174216EB0C4642EB1C456A1854F1000193
:103B300048BF7047B619524141EB0101A3F101039F
:103B4000704795F0000F37D04FEA11424FEA144703
:103B500021EA024624EA074C02FB07F106FB07F7BD
:103B60000CFB06F402FB0CFC14EB074441EB174181
:103B70004FEA154714EB0C4441EB1C4125EA074C76
:103B800002FB07F506FB07F70CFB06F602FB0CFC35
:103B900016EB074645EB174516EB0C4645EB1C426A
:103BA000121951F1000148BF7047B619524141EB5B
:103BB0000101A3F1010370474FEA14454FEA114791
:103BC00024EA054621EA074C05FB07F106FB07F747
:103BD0000CFB06F24FF0000605FB0CFC12EB074253
:103BE00041EB174112EB0C4251EB1C4148BF7047AF
:103BF000921841EB0101A3F101037047490050EA1B
:103C0000C12018BF04204A0D18BF40F0010040F247
:103C1000FF72B2EB515F08BF40F00200012808BFFD
:103C20000520704730380A2801D201207047002053
:103C30007047000010B500290AD00878002807D086
:103C400005487844FFF7D8FB002801D0002010BDBC
:103C50000248784410BD0000120E00000A0E000059
:103C600021F00042A2F16052B2F5801F01F0004342
:103C700028BFD2F17F6C0BD95FEA001C43EAC20275
:103C800042EB507018BF704728BF20F0010070470A
:103C9000B2F5801FBCBF184670474FEA410C1CF5B7
:103CA000001F02D2084600F0F3BD70B500F0C8FA5C
:103CB00000000089FFF7F6BF4FF00040A0F580003C
:103CC0007047000010B591EA030F48BF83F000432E
:103CD00000F11283841A71EB030C05D2121943EB25
:103CE0000C03001B61EB0C01DFF824E14FEA1154D7
:103CF000A4EB135C1EEA430F18BF9EEA445F73D027
:103D000023EA0E03DCF1200E21EA045143F4801370
:103D100032D322FA0CFE10EB0E0023FA0CFE41EB1C
:103D20000E01CCF1200E03FA0EFE10EB0E0051F145
:103D30000001B1F5801FCCF1200E32D201EB04510D
:103D400012FA0EF2BDE8104058BF7047401C38BF51
:103D50005FEA420218BF7047002814BF20F001003C
:103D600041F100014FEA410313F5001F38BF7047CE
:103D7000A1F1C04100F0B2BA012A43EB0302ACF159
:103D8000200CDCF11F0E32BF4FF0000E23FA0CF3B3
:103D900010EB030041EB0451B4EB115FD0D0A1EB69
:103DA000045101F5801149085FEA300001EB04512C
:103DB0000ED350F1000038BF12FA0EFE08D1BDE854
:103DC0001040C9E7401C38BF5FEA4202CAD1C3E7CE
:103DD000BDE810404FEA410313F5001F38BF70479C
:103DE000A1F1C04100F07ABA9EEA445F08D011EA1E
:103DF0005E0FBDE8104004BF01F000410020704795
:103E0000BDE8104070B500F01BFA00BF64FBBE3E79
:103E10000000E0FF2DE9C04130B4DFF8A0C23CEA69
:103E2000111418BF3CEA131400F0EC8081EA03057A
:103E30001CEA111444EAD57418BF1CEA131500F0EB
:103E4000C780A4EB05044FF0004545EAC12145EACF
:103E5000C32341EA505143EA525304F17F7499421B
:103E600004F500344FEAC0204FEAC22208BF904256
:103E700000F09C804FEA13650FF24016765D4FEA22
:103E8000134506FB05F7C7F1807706FB07F74FEAF6
:103E9000D737A7FB03687642C8F58038A7FB06CE64
:103EA00038BFA8F1010807FB08E64FF0000EA6FB9B
:103EB000028CE6FB03CEDCF1000CCEF1004E38BFE5
:103EC000AEF1010EA6FB0C584FF000074FF00005B5
:103ED000E6FB0E87A1FB08C6A0FB07CE16EB0E067D
:103EE00045F10005E1FB076515F1E04E7EBFA4F545
:103EF00080345FEA46066D4116F1800745F1000502
:103F00004FEA17274FEA066647EA0567A6F1DE463D
:103F1000B6F1805F4FEA15251FD9384624F0010C11
:103F200005EBC471BCF1FE6F01EB0C1102D8F0BCC3
:103F3000BDE8008124425CBF01F5801E9EEAC47F7B
:103F400002D4F0BCBDE80081244238D4F0BCA1F119
:103F5000C041BDE8004100F0C1B94FEAD22242EAB7
:103F600043524FEAD323A7FB02864FEAD02040EA10
:103F7000415007FB03661EEA0E0F4FEAD12105FBF5
:103F8000026658BFA6EB0056B6EB00564FEA520E3B
:103F90004EEAC37E18EB0E0E56EB530EBDD518EB52
:103FA00002085E417F1C55F10005B6E74FF480150D
:103FB0004FF000074FF000064FF00008ADE7F0BCEF
:103FC0004FF0000001F1C04101F00041BDE8008167
:103FD00011EA0C1F0CEA131500D00CE013EA0C1FB9
:103FE00000F025804FF00000F0BC81EA030101F0F1
:103FF0000041BDE80081F0BCBDE8004181EA030159
:1040000000F06CB9F0BCBDE8004170B500F018F9E3
:10401000097EFC3E00F007B881EA03014FF0000082
:1040200001F00041704781EA030100F057B9F0BC8C
:10403000BDE800414FF0000021497047FFFDFBF94A
:10404000F7F5F4F2F0EEEDEBE9E8E6E4E3E1E0DECB
:10405000DDDBDAD8D7D5D4D3D1D0CFCDCCCBCAC83D
:10406000C7C6C5C4C2C1C0BFBEBDBCBBBAB9B8B764
:10407000B6B5B4B3B2B1B0AFAEADACABAAA9A8A857
:10408000A7A6A5A4A3A3A2A1A09F9F9E9D9C9C9B25
:104090009A999998979796959594939392919190D0
:1040A0008F8F8E8E8D8C8C8B8B8A89898888878761
:1040B0008685858484838382828181800000FF07D6
:1040C0000000F87FB0FA80F310FA03F10AD0C3F1D0
:1040D0001D0303F580634FEA41504FEA035202EBA0
:1040E000D12170474FF0000070470000DFF848C151
:1040F00070B51CEA111E1EBF1CEA13159EEA0C0FB8
:1041000095EA0C0F00F06F8081EA030423EA4C1358
:104110004EEAD47E21EA4C1141F4801143F480131D
:10412000AE44A1FB024CA0FB0365AEF17F7E3619C5
:1041300055EB0C05A1FB034C4CF10003A0FB021C4A
:1041400016EB0C06654153F10003094218BF46F017
:10415000010613F4007F0BD14FEA03314FEA05301B
:10416000340341EA155140EA16506FF003020AE0A9
:104170004FEAC3214FEAC520F40241EA555140EA13
:1041800056506FF0020202EB2E4201EB025585EA17
:10419000CE710AD05FEA440C18BF24F0004450F1FD
:1041A000000041F1000120EAD47040F2FE7C62453B
:1041B00000D270BDA84214BF4FF080444FF040447D
:1041C000002E08BF0024BEF1806FA8BFA1F1C0413E
:1041D000BDE8704080F282804FF0000001F1C041E4
:1041E00001F0004170479EEA0C0F0CEA131518BF4E
:1041F00095EA0C0F06D04FF0000081EA030E0EF096
:10420000004170BD00F01CF88900013E00F007B8C5
:1042100000F009B84FEA430C5FEA5C5C08D081EA21
:10422000030100F05BB84FEA410C5FEA5C5CF6D139
:104230004FF00000014970470000FF070000F87FC1
:104240000EF1020E2EF0030E5EF8046B364205D41A
:10425000012A43EB030515F5001F12D8012841EB95
:10426000010C1CF5001F0CD80ED14FEAD17C15F5BE
:10427000001F0CEB4C0C0CF1020C08BF4CEBD37C78
:1042800004E04FF0080C01E04FEAD37C0CEB4C0546
:1042900026FA05F606F00706B6F1040C06D20EEB78
:1042A000860CBDE870404CF0010C6047DFE80CF074
:1042B000090B02024FF000414FF00000A1F5002170
:1042C00070BD19461046012851EB010418BFD4F502
:1042D000001484BF002001F0004170BD0808A0F563
:1042E00000114FEA3101704710B591EA030F48BF42
:1042F00083F000433FF5EEAC841A71EB030C07D258
:1043000012198CF0004C43EB0C03001B61EB0C0109
:10431000DFF8A4E14FEA1154A4EB135C1EEA430F4B
:1043200018BF9EEA445F00F0B08023EA6E03524259
:1043300021EA0451C3EB6E0338BF5B1EDCF1200E93
:1043400025D322FA0CFE10EB0E0043FA0CFE41EBD3
:104350000E01CCF1200E03FA0EFE10EB0E0051F10F
:104360000001CCF1200E29D412FA0EF201EB045117
:10437000BDE8104058BF7047401C1CBFB2F1004F51
:10438000704700280CBF491C20F00100704712EB59
:10439000020E43EB030218BF4FF0010E4EEA420239
:1043A000ACF1200CDCF11E0E54D943FA0CFE10EBDC
:1043B0000E0051F1FF31CCF11E0ED5D50EF1010EDC
:1043C00012FA0EFE404141EB010101EB445C5FEA51
:1043D0005C5C10D910EBDE7001EB045138BFBEF10C
:1043E000004FBDE8104018BF704700280CBF491CA3
:1043F00020F00100704730D24FEAD42C11F50011A3
:1044000024F400641BD0B1FA81F20B3AA41AA41E62
:10441000D2F12003914030FA03F31943904001EBAD
:10442000CC71002C01EB0451BDE81040A8BF7047CF
:1044300001F1C0414FF0000001F000417047B0FAB7
:1044400080F310FA03F100D110BDE41A173C4805BF
:10445000C90AE4E701EB045110BD491001EB045116
:10446000BDE810404FEA300002E04FF00001704715
:104470004A0008BF0042F8D0B2F5001F28BF7047BD
:1044800001F000414FF0000070479EEA445F07D002
:1044900011EA5E0FBDE8104004BF00210020704704
:1044A000BDE8104070B5FFF7CBFE00BF40DFF63E21
:1044B00083F00041104670470000E0FF43004FEAE0
:1044C000D30C4FEA3C0C43401FBF40070CF1605136
:1044D00013F0FE4F70471CF0006F03D100200CF06A
:1044E000004170470CF0004343EA507010B540EAB9
:1044F000CC0000F087F900BF000000924FEA0001F5
:10450000FFF7ECBE4FF000414FF00000A1F5002195
:104510007047000090EA010F48BF81F0004100F1B0
:10452000CE81421A3CBF801A89184FEAD0524FF010
:104530007F4C1CEA410FA2EBD15318BF9CEA026FDB
:1045400000F03B804FF0004C4CEA00204CEA012187
:1045500021FA03FC10EB0C0C1ED202F1FF325FEAD1
:104560001C2040EBC25038BF70471CF07F0F4FEA51
:10457000400C18BFBCF17F4F38BF7047C3F1200318
:10458000994008BF20F00100BCF17F4F38BF704751
:10459000A0F1C04000F07CB94FEA3C00000A40EBBB
:1045A000C25028BF1CF0FF0F4FEA400CE6D018BFE6
:1045B000BCF17F4F38BF7047EAE79CEA026F05D035
:1045C00010EA5C0F08BF00F00040704710B500F023
:1045D00019F900BF64FBBE3E401058BFC0F1404017
:1045E000491058BFC1F140418142EFF3008070474C
:1045F0004FF47F0C1CEAD0121EBF1CEAD11392EAC2
:104600000C0F93EA0C0F00F0858090EA010F48BF71
:1046100042F4807240F4000C41F400002CF07F4121
:1046200020F07F4000B58142A2EB03020FF2081C8C
:10463000ACEB504EC0F100009EF800E04FEA4E0E89
:1046400000FB0EFC38BF49004FEA2C1C02F5FA02B1
:104650000CFB0EF34FEACE1E4FEA112C4FEAC1219C
:104660000EEB635E42EB22420EFB0CFC4FEA1C5346
:1046700000FB03114FEA112C4FEA01310EFB0CFC39
:104680004FEADC4C00FB0C11C14228BF09184CEB6F
:1046900003335DF804EB10EB410143EBC250B2F57C
:1046A0007C0F38BF704729D512F0F00F1CBF00F106
:1046B000C04000F000407047008182838485868777
:1046C00088898B8C8D8E8F919293959697999A9CD1
:1046D0009D9FA0A2A3A5A7A8AAACAEB0B2B3B5B740
:1046E000B9BCBEC0C2C5C7C9CCCED1D4D7D9DCDF16
:1046F000E2E6E9ECF0F3F7FAFE0000004FEA400CC6
:104700000CF1807CBCF17E4F28BF7047B0F1C040F7
:1047100000F0BEB890EA010F0CEAD11348BF42F492
:104720008072624538BF634507D213F47F0F16D0FD
:1047300080EA010000F00040704710B500F062F818
:10474000097EFC3E00F005B880EA010000F0004060
:10475000704780EA010000F0004000F099B812F4C0
:104760007F0F04BF0248704780EA010000F090B854
:104770000000C07FB0FA80F310FA03F2C3F19D038A
:104780000AD0D90501EB1220530638BF704700F15B
:10479000010008BF20F001007047000050EA010C42
:1047A00000F113801CF5000F58BFBCF5000F01D4B9
:1047B0008842704707D710F5000F58BF11F5000F5A
:1047C00015D488427047894270471CF5000F04D504
:1047D000BCF5000FF7D5814270474FF0807C1CEB91
:1047E000400F38BF1CEB410F01D28142704710B51A
:1047F00000F008F8922449004FF000504FF080512B
:10480000FFF7EABE0EF1020E2EF0030E5EF8044B27
:10481000244204D44FEA4102B2F17F4F11D84FEA4B
:104820004003B3F17F4F0CD80ED14FEAD07CB2F1E8
:104830007F4F0CEB4C0C0CF1020C08BF4CEBD17C05
:1048400004E04FF0080C01E04FEAD17C0CEB4C0384
:1048500024FA03F404F00704B4F1040C06D20EEBBE
:10486000840CBDE810404CF0010C6047DFE80CF010
:10487000070802024FF00040A0F5800010BD084676
:10488000420018BFD2F1807288BF00F0004010BD16
:10489000FF2141EAD050C005704780F0004090EA07
:1048A000010F7FF53EAE81F0004100F008B8000036
:1048B00090EA010F48BF81F000413FF532AE421A45
:1048C00004D882F00042A0EB020011444FEAD0521B
:1048D0004FF07F4C1CEA410FA2EBD15318BF9CEA6A
:1048E000026F4AD04FF0004C4CEA00204CEA012104
:1048F00021FA03FCB0EB0C0C0FD412F0FE0F36D0F3
:104900005FEA4C001DD5001240EBC25038BF704723
:104910001CF03F0F18BF70470BE0A2F101025FEAE5
:104920001C2040EBC25038BF70471CF07F0F18BFEF
:104930007047C3F12003994014BF401E20F00100CE
:10494000704780084FEA122308BF7047B0FA80FC16
:10495000A2EB0C02CCF1280C60FA0CF093EA122FB7
:1049600004BF00EBC25070474FEAC3707047130A90
:104970005FEADC1008BF7047F6E79CEA026F04D0DC
:1049800010EA5C0F08BF0020704710B5FFF73AFF30
:1049900040DFF63E81F000407047FEF7A8BA000005
:1049A00002400000000000A00000000005400000E0
:1049B000000000C8000000000C4000000000409C07
:1049C00000000000194000000020BCBE00000000F4
:1049D00034400000BFC91B8E00000004B540000039
:1049E000504BCFD06607E2CF010000006C410000C1
:1049F0003E8251AADFEEA73401000000D942000038
:104A0000DCB5A0E23A301F97FFFFFFFFB44500007E
:104A1000FD25A0C8E9A3C14FFFFFFFFFFF3F000036
:104A20000000008000000000FF3F00000000008048
:104A300000000000704A00080000002098180000E4
:104A40006C0100080059000898180020600600005A
:104A5000C80100081C00000043000000F8FFFFFF31
:104A60000C0000000E0000000F0000002E000000EF
:104A700001134A100121331818E51236244828087A
:104A8000242424FE48484804392F280C3854545014
:104A9000301814145454383611500C44A4A8A8A843
:104AA000541A2A2A2A441A30293008506EA49488AD
:104AB0008976C5606020C04D020408087125080889
:104AC00004022B40200A29015D10102040913DD6A0
:104AD0003838D65C79A14AFEA3D1A95B02137F4383
:104AE00060603D01020204743C202040604C1824A8
:104AF00042012A24F0195F4A70905410107C1A3C2D
:104B00001B19326D1020427E105009041804020255
:104B1000424438500C040C14242444447E04041EE3
:104B20008F7E4040405864202B1C241089606C7E8E
:104B30004444F379603A2485523C390B4E261A02DC
:104B40000224402913393A490649A4490633102062
:104B50002A029C874020100804025AFE0451491B77
:104B6000392569701A620F6A08501D38445AAA0123
:104B70006AB4B0500C1010182828243C444242E774
:104B80001EF8444444780E544244F82D3E4242807C
:104B90000169302AF81C29015920B80CFC42484808
:104BA000784848404242FC104C4040E0801B44445E
:104BB0003E5C8E8444402AE73C2A7E0549706B7C2B
:104BC00010014A7C707A08013388F0500CEE44489A
:104BD00050705048484444EE1AE05A39014A42F3B2
:104BE0001BEE6C012A540152D6580CC76262525215
:104BF0004A4A4A4646E2F04A820159802AFC7B2A08
:104C00007C4149A059206EB2CA4C3806202A7C6FDC
:104C10004B42E39018084242402018040216516BA0
:104C2000FE92B099D039016A3C10500944242428DE
:104C3000281810101BD692015FAAAA6C4444442085
:104C4000480A2424181818242442E7C09D44442804
:104C50002850300C7E840408081020204242FC6A50
:104C60001E6D2901321E1D404020200B100808082F
:104C700004040402029B7808012278031C1C2212FF
:104C8000FF0512606020C050083C421E2242423F95
:104C90001FC04040405864CF9364581B1C221553DA
:104CA000221C2D060202022E9C42261B40567E40EC
:104CB00040423C3E0F1110107EAF927C38083E44BB
:104CC0004438403C422229601B5C62405342E72347
:104CD00030309A70301B0C0C7019DD19011A44D158
:104CE000393050084E4850684844EE492CC9602B72
:104CF000FE490192ED9ADC6049A0290149A0412AB0
:104D0000D8E075447840E039D075221E02071CEEC9
:104D10003220018AF8C06E42403C024270197A3952
:104D20008019A9712AC65F93463B9008E742242464
:104D30002810109008D79292AAAA4444C8086E245A
:104D40001818182476306C1810109030087E44081B
:104D50001010227E2B0304013A0806130403DA081C
:104D600001113A608A192E29011260D4304C431087
:104D70000CD0A310401020102011FEFC180F10883A
:104D800031043A02548850889050105016181D5023
:104D900010881306D7BC01404120212023FE0220A9
:104DA00016201BFC1220222023FCE206190813FE09
:104DB00022120214B7F9101411FE101D7CF8548849
:104DC0000213F854180B55FC552455245DFC11248E
:104DD00002180CFC1104D6B5084008400FFC6C38D2
:104DE0000D4033F8320853F8920813F812041C12DD
:104DF000081F3C14D5BC0139025AFE08116D3FF85A
:104E0000200802290C1CBFD50216200B7FFE400291
:104E10008824101020086B1FF02C191822FC13B1E5
:104E2000C82B802002380A84208820903EA020C011
:104E30000E200A80208226823882207E2BC6B5AAC8
:104E4000180C50205C4051FC5104FF2401A029AAF9
:104E50001E5544845008FE3DC202C2CA6613FC02BD
:104E6000100B44442F88111022484FE41320017A7C
:104E7000FF9813C1E8100840404023F82040101B61
:104E80004007FE111012882484E1F0231024A02092
:104E90004020A023100C0CD6C720180E3E7C48449E
:104EA0000844FF441444227C40AA1A100189066B6E
:104EB000B5E7E42B2108029908160A010201022431
:104EC000FED7D3137FF812101220AC400180802946
:104ED00002120512021025D4D8082008287F2408C1
:104EE00020FFFE10201024FF24202448287F2808BB
:104EF000100F12F82A08460882B2A820232020208A
:104F0000102013FE822242244A200BFC12841288B5
:104F1000E24822502220245024880906D0F20115AC
:104F2000803FFE2019D01B1020C218082FFE2042FF
:104F3000204420E215404081401480C1D0180D0467
:104F40007F84080408241F24112421021E52248A6D
:104F5000240402180B0804100420144008D0CEAA20
:104F6000680E8412041208121012221202FFC40AE0
:104F700010142204220842108260C4A311101110E0
:104F800017FC1110FC101913F832083BF85608539F
:104F9000F8904017FC10A0111012081406CABD1298
:104FA000481A44021440FFFE12402D403E400802C1
:104FB000100A2008220F12780A2006480802D7EEAD
:104FC0001FF01010042114FFFE2210143EF8228856
:104FD0003E9022502F20F25042880306B4F301691C
:104FE000022BFFFE061808028002800440044810CD
:104FF0001210102008C006B2D923F8220822082374
:10500000F8F8180A27BC24A42CA437BCE0F2100E30
:10501000216022502448B8464040D7F70929022889
:105020000E11FE12803280348050F8908010023AC7
:10503000FC0619021BC6AB0619BA10082404240486
:1050400067FC6412A4180A27FC26A42AA42BFC2AB5
:10505000062732A4220CB5F7180E47FC244424443A
:1050600005F40444E444272C181225F425142D14C7
:1050700035F4240404140808D6C6043E1E24043F54
:10508000A444072BFFE40D1C3FA424021C26842506
:1050900022250408C9E8100C21F01110111001108C
:1050A000020EF4101C13F811081110109014A0181F
:1050B0004010A003180C06D6C37FFC44447FFC01BB
:1050C0002904AD1FF010100423FFFE23D5FD291C79
:1050D000490212111B11F8047902292213CFD210B0
:1050E0001F40F82008200BFE084078404088410807
:1050F00043F078200840088809040BFC5104201C68
:10510000BBF908204F7FFC08200FE004280BFFFEAE
:10511000082011102108CFE65618083FF8B4F80906
:10512000200922290619703FFE410281041FBA2D71
:10513000115011202424B6C801280A803FFE2220E5
:1051400022203FFC061423E02018272FF0241042D1
:105150002041C08630380EB0B4104010201020130B
:10516000FEFA02144410401BFE3088D0881108104B
:10517000D01618085050882304BCFC1F1019103B8F
:105180007C211441FE7A14A27C2710F97C2510257D
:10519000FE22102A10351A28CC14CCE11038081140
:1051A000FC11041104FD061415FC18201133FED067
:1051B000201120113C112052A0247ECABE833FF84A
:1051C0002BFFFE9C19A61C082104B4130205120231
:1051D00013C8B71240181540FC7C1084110822FE39
:1051E0003C92649264FEA4922492240C100925122D
:1051F000210A0204C8CF1C402040AE1928112B40C0
:10520000F00A2AA002100D15101910120804040843
:1052100002D1A11809402240124013F804221BF7C2
:10522000FC801902100812241224141C281A47AA00
:1052300014D4F120181427F822082110F0A02040DF
:1052400021B0264E3040E3F82058101227FC2040B1
:10525000A0404040D0C5084008200BFE101210149A
:1052600031FC3012502B91FC0C49E0290623BAC5C1
:105270003C1FF010012B1FF0CE1A0820190A292715
:10528000121012A04C40B7A2DE1222143FFC0212F0
:1052900004180A07F80A08090811101074180940C0
:1052A000A003181C06C9FA223902143FFC2112413E
:1052B000128112011C3FF8010629021AFFAA23C617
:1052C000F768173E7C224422443E7C01200110FFF7
:1052D000FE02800C603018C0061613B7B517082000
:1052E0003C13C0121202481103FCF204128812503F
:1052F0001220125014881504EE23BBD8680B3FF817
:105300002008200827C82448022B27C81229182162
:105310001BB1EAB3151013F81012FC182F10043744
:10532000FE3840544051509148124C1444104011E2
:10533000401080D7BC01404120312413FE022016CA
:10534000281BFC12202228E3FC2220021D2423FE1D
:10535000227C13BCC61D40204010021112402C4478
:10536000F7FE0A29023E1240144018161824CAFDFE
:10537000084049402A400884FFFE19082C884A88C2
:105380001088FE902250222014501888250E4204C6
:10539000B4221818084813FC20404840084417FE5F
:1053A0003010501497FE10101210110227105010D8
:1053B00020B2E21810404427E42454855465542553
:1053C000540D5415063820E5542104228424442821
:1053D000542008C6B5100413FE54205E4451FE55F7
:1053E00004FF2411245502100E952408201050208B
:1053F0008C4304C2CA021601087FFC011012424409
:105400002788111022484FE401200104FFFE0149C2
:105410000213D6DC180A083FFC210821482FE806B1
:10542000280A283FF8204827E82448021547C8845E
:1054300028181010C6DA2204227E22447F44224417
:105440003E7C04190815227CFFC4180C4424442215
:105450008441148208B8DF661954211C1FF0100122
:10546000131FF02808047FFE40044FE44710084F44
:10547000E4400CB5E7021902680A107FF8421042B6
:10548000107FF00619142604020401FC13C6BD396E
:10549000A829FEBC092009A449023815B5CD100879
:1054A000103C17C0244024406440A44427FE24201C
:1054B00002380C902512264A242A2004D5BC664CBA
:1054C0000803FC6E19CC8A10021F3FF02010BFD5D4
:1054D000AA11199C200A0284440C30101820085B81
:1054E0003FF86239C213B1C84B80200258088824A3
:1054F000983EA020C00E0008FF8226823882607E7F
:1055000001FF01FF01FF018A43C1E82204220312C7
:10551000021009300230187FF81A02130A02101E16
:1055200002020C05FDF004386004683808CC0C0950
:1055300018440A1FE03830C0104880108513110746
:105540001330071410098036307803C01C4BD6C7BF
:10555000492903101D12080FFBFC0882081182085C
:10556000019A083FFE080182080363F8023208042A
:105570001A22081531FFE0015A40036BFFC00919D8
:1055800015326073B5E722185A10037F0FFFF00839
:10559000102003FC0FFFE00F19273A080312041331
:1055A000180C330FF883D7D3192322F0195E2A8001
:1055B000EA3A145C29036D0C7FFFFE0C09120319F3
:1055C00046423083D5FD19BF1A1C702908690313A0
:1055D0000308280B020810020838020FC0020CD979
:1055E0000360080802081C3DF7E073CFD2120213D3
:1055F0000181131F81100901800C01FFF001831349
:1056000011831B1F86BF1010301008203018603F18
:105610009FC001908001011A012A50100620010448
:105620001801080C033FFC0E18040463D0C51303D3
:10563000061303031F02030806FFFC1A2A0C031DAE
:10564000101C3FE0E612242610447FF84419185835
:105650000A042018043FF004201003690C315ABAE0
:105660004A12021D4003FFC0067903390F31150CA1
:105670003FFFF022C01A80AF1C60017FCC6A40035C
:10568000191612C0131F80420773B7A212216811A6
:105690000660C00C60600840601840081FFFFC10E6
:1056A0002B11138060100EFFE001A0400110C00319
:1056B00009800209130606130406180C080D801051
:1056C00030E020403E4380C31143C9FA199E1218AE
:1056D000130218130318130618100C0418100418DA
:1056E000380BFFC008183A10031320181D4018602B
:1056F000079D2A182A9903650C7FFFFE63C6F713DE
:1057000008044F0FE7F00C663003390C12201339F0
:10571000C01620483FFFFC12C21501818003480BD0
:10572000E00C203E37E7F8046430031C07E7F0067E
:10573000193C3115BCF2040213060310090C660C67
:105740000FF7FE1A0910081190C025208042161884
:10575000037FFC121809181CC31818FF9818062993
:105760000939067909100AC2181880181801F818A2
:105770001370103420D2D712021EC003FFE00306BC
:105780002909390649091380C012C0101F01801869
:1057900003FFFC0631980C319818631830C3184188
:1057A0008618030C300C183030306017C7E0030146
:1057B000C00C1680CAFD0201100C23A1C013398051
:1057C0001B61800B43103703930C7FFBFE070330F4
:1057D0000FC6300B6630132A3062123003023006D7
:1057E00023307FF1200C61600C61C018C0C006C17D
:1057F000C001C1E00663381C261E70080812301B69
:10580000D7D605112218121C100810080C1FFFFE15
:1058100030130C701310601DC007FFE08F112203BE
:105820001A141E1A08E92C7FFFFE2AC9032301F867
:105830002270122024C6B501199E1820018FFE1176
:1058400080C01DA18019F50C1987FE19860C1986D8
:105850006C7FF64C01864C09864C0D03101EA64C3D
:1058600019B64C11B64C31E64821C4A041819803C9
:10587000030C060606180C0260100212605BC2CA16
:1058800094220C1E08183FFFFC5E200C10321018EA
:1058900043380DFE40048C180F1A60062130184F53
:1058A0009831F190109080BB110B11180C9D1210C3
:1058B00013BCC612012A0895180C80060180070146
:1058C0008003018002D51809018806019C7F7FFEB4
:1058D00015E9032808218006418007812D2D0E013E
:1058E00080042D1903111A0604312D01020304044A
:1058F0002009060708090204060884A24A04691957
:0400000508000131BD
:00000001FF
